:020000040800F2
:100000002804002001010008930400088B04000864
:100010008F040008D9020008190B00080000000036
:10002000000000000000000000000000D9040008EB
:100030005D0300080000000095040008C1050008E9
:100040001B0100081B0100081B0100081B01000820
:100050001B0100081B0100081B0100081B01000810
:100060001B0100081B0100081B0100081B01000800
:100070001B0100081B0100081B0100081B010008F0
:100080001B0100081B0100081B0100081B010008E0
:100090001B0100081B0100081B0100081B010008D0
:1000A0001B0100081B0100081B0100081B010008C0
:1000B0001B0100081B0100081B0100081B010008B0
:1000C0001B0100081B0100081B0100081B010008A0
:1000D0001B0100081B0100081B0100081B01000890
:1000E0001B0100081B0100081B010008DFF80CD0F1
:1000F00000F018F800480047A50C0008280400206C
:100100000648804706480047FEE7FEE7FEE7FEE7B1
:10011000FEE7FEE7FEE7FEE7FEE7FEE73106000842
:10012000ED000008064C074D06E0E06840F00103D2
:1001300094E8070098471034AC42F6D3FFF7DAFF93
:10014000E80C0008080D000810B55C48008818B9D4
:1001500000205B4908605AE058480088012800D117
:1001600000E000205549B1F90010491C01D10121DE
:1001700000E0002108430DD05048B0F900000028ED
:1001800003DDBE204E49086041E06FF0BD004C49E0
:1001900008603CE049480088022801D1012000E0C5
:1001A00000204649B1F90010891C01D1012100E06D
:1001B000002108430DD04148B0F90000002803DDBC
:1001C000F0203F49086022E06FF0EF003C490860F2
:1001D0001DE03A480088032801D1012000E00020FA
:1001E0003649B1F90010C91C01D1012100E00021FC
:1001F00008430CD03148B0F90000002804DD4FF46A
:100200008C702F49086002E02E482D4908604FF499
:1002100080712D4800F02CF9012801D1012400E063
:1002200000244FF40071284800F022F9012800D181
:1002300000E00020044307D12448006823490860F7
:1002400023480068224908601D480068C0F5C37053
:100250001E4908601A48006800F5C3701C49086010
:100260001A480068B0F5C37F03D94FF4C37017492B
:10027000086017480068B0F5C37F03D94FF4C37016
:1002800013490860114800680A2802D20A200F4961
:1002900008600F4800680A2802D20A200C4908604A
:1002A0000A48008881B20B4800F0DFFB084800884C
:1002B00081B2084800F0DBFB10BD00000000002008
:1002C00004000020E8FEFFFF000C014008000020B1
:1002D0000C0000200004004000BFFEE708B501212B
:1002E000042000F0E9F80121082000F0E5F81820CA
:1002F000ADF8000010208DF8030003208DF80200F7
:100300006946094800F02BF80320ADF80000694663
:10031000064800F024F81821034800F0B4F803213F
:10032000024800F0B0F808BD00080140000C014090
:1003300010B51021074800F0A4F80821054800F086
:10034000A0F80221044800F09CF80121024800F0C6
:1003500098F810BD00080140000C014070472DE9DD
:10036000F04102460025002600200023002400273B
:1003700091F803C00CF00F0591F803C01CF0100FAA
:1003800003D091F802C04CEA050591F800C0BCF119
:10039000000F31D0146800202BE04FF0010C0CFA54
:1003A00000F3B1F800C00CEA03069E4220D183009E
:1003B0004FF00F0C0CFA03F7BC4305FA03FC4CEAB0
:1003C000040491F803C0BCF1280F06D14FF0010CD2
:1003D0000CFA00FCC2F814C00AE091F803C0BCF1AA
:1003E000480F05D14FF0010C0CFA00FCC2F810C008
:1003F000401C0828D1D31460B1F800C0BCF1FF0F35
:1004000034DD546800202EE000F1080C4FF00108A4
:1004100008FA0CF3B1F800C00CEA03069E4221D1A1
:1004200083004FF00F0C0CFA03F7BC4305FA03FCF2
:100430004CEA040491F803C0BCF1280F05D100F187
:10044000080C08FA0CF8C2F8148091F803C0BCF14B
:10045000480F07D100F1080C4FF0010808FA0CF81A
:10046000C2F81080401C0828CED35460BDE8F0814B
:100470000246002093680B4201D0012000E00020DA
:100480007047416170470161704700BFFEE700BFE0
:10049000FEE770477047000029B1064AD26902435F
:1004A000044BDA6104E0034AD2698243014BDA610A
:1004B000704700000010024029B1064A92690243C9
:1004C000044B9A6104E0034A92698243014B9A61AA
:1004D0007047000000100240704710B500F002F8AD
:1004E00010BD00000CB5002001900090324800685B
:1004F00040F480303049086000BF2F48006800F4A5
:10050000003000900198401C0190009818B90198A3
:10051000B0F5A06FF1D12848006810F4003F02D078
:100520000120009001E0002000900098012842D1B5
:100530002248006840F01000204908600846006822
:1005400020F0030008600846006840F002000860E0
:10055000194840681849486008464068486008469D
:10056000406840F4806048600846406820F47C1091
:1005700048600846406840F4E81048600846006853
:1005800040F08070086000BF0B48006810F0007FEA
:10059000FAD00948406820F003000749486008463F
:1005A000406840F00200486000BF0348406800F027
:1005B0000C000828F9D10CBD0010024000200240B8
:1005C00010B5FFF7C1FD10BD30B51648006842F206
:1005D0001072B0FBF2F1B1F1807F01D301201DE078
:1005E00021F07F40401E4FF0E022506150170F2253
:1005F000002807DA13071D0E0B4B00F00F04241F11
:100600001D5503E013071C0E084B1C5400BF0020AF
:100610004FF0E022906107201061002008B100BF78
:10062000FEE730BD1000002018ED00E000E400E01F
:1006300010B51348006840F00100114908600846F1
:100640004068104908400E494860084600680E4955
:1006500008400B4908600846006820F480200860C4
:100660000846406820F4FE0048604FF41F00886090
:10067000FFF733FF4FF000600449086010BD000031
:10068000001002400000FFF8FFFFF6FE08ED00E05A
:1006900008B501210220FFF7FFFE01210420FFF72A
:1006A0000BFF01210820FFF707FFC020ADF8000075
:1006B00018208DF8030003208DF8020069460248D7
:1006C000FFF74DFE08BD000000080140F0B587B0FF
:1006D000002700240025002640F2E730ADF8140082
:1006E0000320ADF810000020ADF81600ADF81200A0
:1006F00004A91F4800F0BEF96020ADF800000120F9
:10070000ADF80200ADF806700020ADF808006946AB
:10071000174800F04FF80821154800F097F8ADF899
:1007200006406946124800F09BF80821104800F086
:10073000E9F8ADF8065069460D4800F0F1F80821D7
:100740000B4800F03DF9ADF806606946084800F036
:1007500041F90821064800F07BF90121044800F026
:1007600011F80121024800F019F807B0F0BD0000AF
:100770000004004010B5FFF7B1FDFFF789FFFFF758
:10078000A5FF10BD21B1028842F08002028004E082
:1007900002884FF67F731A400280704721B10288A9
:1007A00042F00102028004E002884FF6FE731A4014
:1007B0000280704770B5002400220023058C4FF69C
:1007C000FE7635400584028C8388048B4FF68F7546
:1007D0002C40B51E2C400D882C43751E2A400D89D7
:1007E0002A434D882A43144DA8420BD0134DA842EA
:1007F00008D0134DA84205D0124DA84202D0124D88
:10080000A84213D14FF6F7752A404D892A434FF677
:10081000FB752A408D882A434FF6FF652B404FF623
:10082000FF552B408D892B43CD892B438380048337
:10083000CD888586028470BD002C014000340140C3
:100840000040014000440140004801400A460021A8
:10085000018B4FF6F7731940114301837047000075
:1008600070B5002400220023058C4FF6EF7635404A
:100870000584028C8388048B48F6FF752C404FF664
:10088000FF452C400D884FF6FF7606EA05252C43E0
:100890004FF6DF752A400D8906EA05152A434D8873
:1008A00006EA05152A43154DA84202D0144DA84268
:1008B0001DD14FF67F752A404D894FF6FF7606EA27
:1008C00005152A434FF6BF752A408D8806EA05159F
:1008D0002A434FF6FF352B404FF2FF752B408D8991
:1008E00006EA85052B43CD8906EA85052B438380DF
:1008F0000483CD880587028470BD0000002C014070
:10090000003401400A460021018B4FF2FF73194069
:100910004FF6FF7303EA0223194301837047000077
:1009200070B5002400220023058C4FF6FF66354089
:100930000584028C8388848B4FF68F752C404FF68C
:10094000FC752C400D882C434FF6FF552A400D892D
:100950004FF6FF7606EA05252A434D8806EA052567
:100960002A43154DA84202D0144DA8421DD14FF282
:10097000FF752A404D894FF6FF7606EA05252A4382
:100980004FF6FF352A408D8806EA05252A434EF6A4
:10099000FF752B404DF6FF752B408D8906EA051536
:1009A0002B43CD8906EA05152B4383808483CD88AC
:1009B0008587028470BD0000002C01400034014096
:1009C0000A460021818B4FF6F7731940114381834A
:1009D0007047000070B5002200230024058C4EF6FD
:1009E000FF7635400584038C8488828B48F6FF753A
:1009F0002A404FF6FF452A400D884FF6FF7606EA5B
:100A000005252A434DF6FF752B400D8906EA05356D
:100A10002B434D8806EA05352B430B4DA84202D0E7
:100A20000A4DA84208D14BF6FF752C408D894FF630
:100A3000FF7606EA85152C4384808283CD88A0F852
:100A40004050038470BD0000002C01400034014080
:100A50000A460021818B4FF2FF7319404FF6FF7356
:100A600003EA022319438183704781867047018717
:100A700070470000002202881D4B98420ED01D4B8B
:100A800098420BD0B0F1804F08D01B4B984205D054
:100A90001A4B984202D01A4B984204D14FF68F73EA
:100AA0001A404B881A43174B984207D0164B98426E
:100AB00004D04FF6FF431A40CB881A4302808B883C
:100AC00083850B8803850A4B98420BD0094B9842CB
:100AD00008D00E4B984205D00D4B984202D00D4BDA
:100AE000984201D10B7A038601238382704700006C
:100AF000002C014000340140000400400008004088
:100B0000000C004000100040001400400040014074
:100B1000004401400048014000BFFEE710B54FF41B
:100B200000414F48FFF7A4FC012801D1012400E057
:100B3000002410214A48FFF79BFC012800D100E067
:100B40000020044319D0052000F09DF84FF4004127
:100B50004348FFF78DFC012801D1012400E0002467
:100B600010213F48FFF784FC012800D100E000205D
:100B7000044302D000203B4908804FF480413848AC
:100B8000FFF776FC01280CD1052000F07CF84FF42B
:100B900080413348FFF76CFC012802D1801E3149A7
:100BA00008804FF400512E48FFF762FC01280CD159
:100BB000052000F068F84FF400512948FFF758FC71
:100BC000012802D1C01E274908804FF480512448D3
:100BD000FFF74EFC01280CD1052000F054F84FF42B
:100BE00080511F48FFF744FC012802D1001F1D4916
:100BF000088020211A48FFF73BFC01280AD1052074
:100C000000F041F820211648FFF732FC012801D1FD
:100C10001449088040211248FFF72AFC01280BD113
:100C2000052000F030F840210D48FFF721FC012895
:100C300002D102200B49088080210948FFF718FCE7
:100C400001280BD1052000F01EF880210448FFF791
:100C50000FFC012802D103200249088010BD0000CA
:100C6000000C01400000002002E008C8121F08C16B
:100C7000002AFAD170477047002001E001C1121F1D
:100C8000002AFBD17047002106E00C2100BF0A00BA
:100C9000A1F1010399B2FAD10200A0F1010398B2C7
:100CA000F3D17047FFF766FD00F008F8FFF78CFC02
:100CB000FFF73EFB01E0FFF731FFFCE708B501213C
:100CC0000820FFF7F9FB4FF23030ADF80000482064
:100CD0008DF8030003208DF8020069460148FFF7F4
:100CE0003EFB08BD000C0140080D0008000000207C
:100CF00024000000680C00082C0D000824000020CF
:100D000004040000780C000800000000000000004F
:100D1000000000000000000000A24A0400000000E3
:0C0D20000000000001020304060708099F
:04000005080000ED02
:00000001FF
